:020000040000FA
:04000000FEEF3FF0E0
:107D180000017BEF3FF0A2EC3EF04AEC3FF096EC1E
:107D28003EF01200620E3901D96F000EDB6F000EB3
:107D3800DD6F050EDF6F000EDE6F1200000E3901D9
:107D4800C06F000EC16F000EC26F000EC36F000E31
:107D5800C46F000EC56F000EC66F000EC76F12000D
:107D68000140E842C00B6C6E600004F003F0600054
:107D780008F004F0D89004320332D8900432033269
:107D880003506D6E12000140E842C00B686E60003F
:107D980004F003F0600008F004F0D89004320332D5
:107DA800D890043203320350696E12000140E84251
:107DB800C00B646E600004F003F0600008F004F08B
:107DC800D89004320332D890043203320350656EDF
:107DD8001200000E6E6E320EAB6E000E026E660E54
:107DE800016EB4EC3EF03901A495010EAE6E000EA2
:107DF800AC6EAC8E800E6E6EA4A505EF3FF007EF5B
:107E08003FF000EF3FF0C2900D0E3A01006F1200F4
:107E1800000E6A6E320E9F6E000E026E660E016EC6
:107E2800C7EC3EF03901A791010EA26E000EA06EBC
:107E3800A08E800E6A6EA7A124EF3FF026EF3FF0D8
:107E48001FEF3FF0C2920E0E3A01016F1200000EB2
:107E5800666E320E936E000E026E660E016EDAECDE
:107E68003EF03901A991010E966E000E946E948E23
:107E7800800E666EA9A143EF3FF045EF3FF03EEF5D
:107E88003FF0C2940F0E3A01026F1200000EBA6E54
:107E9800000EBB6E000EBC6EC268C368C468FC0EE0
:107EA8003A01606F50694069000E816F000E516F92
:107EB800000E416F000E616F000E5A6F000E5B6F6F
:107EC800000E6A6F000E6B6F000E426F000E526F4D
:107ED800000E626F43695369636944695469646950
:107EE800080E846F100ED16F110ED26F12008FEC36
:107EF8003EF0EDEC3EF00CEC3FF02BEC3FF0020EC8
:107F0800076E020E086E000E0A6E000E096EB0EFC4
:107F18003FF0600024F001F0600028F002F0B4ECBB
:107F28003EF0600024F001F0600028F002F0C7EC99
:107F38003EF0600024F001F0600028F002F0DAEC76
:107F48003EF00D0E056EFC0EE82EFED7052EFCD772
:107F580007500926000E0A22CC0E056E000E066E8A
:107F68000750055E000E065A0550095C06500A586F
:107F7800D8A0C1EF3FF0C3EF3FF08DEF3FF0000E08
:107F88000C6ECC0E0B6EECEF3FF060002CF001F0A5
:107F9800600030F002F0B4EC3EF060002CF001F02C
:107FA800600030F002F0C7EC3EF060002CF001F009
:107FB800600030F002F0DAEC3EF00D0E056EFC0EBB
:107FC800E82EFED7052EFCD708500B5E000E0C5A83
:107FD8000850056E066A0B50055C0C500658D8A070
:107FE800F8EF3FF0FAEF3FF0C9EF3FF087EF3FF0CF
:087FF800FEEF3FF08CEF3EF0BC
:020000040020DA
:10000000FF0FFF0FFF0FFF0FFF0FFF0FFF0FFF0F80
:020000040030CA
:0A000000ECFFF7FF9FFFFFFFFFFF7B
:00000001FF
