:020000040000FA
:04000000FEEF3FF0E0
:107ECE00CA901200C2901200CA8012000001ABEFDD
:107EDE003FF085EC3FF0CDEC3FF079EC3FF097ECC6
:107EEE003FF01200620E3901D96F000EDB6F000EEB
:107EFE00DD6F050EDF6F000EDE6F1200000E390112
:107F0E00C06F000EC16F000EC26F000EC36F000E69
:107F1E00C46F000EC56F000EC66F000EC76F120045
:107F2E00800E3F011E6F000E1F6F000E206F000EA1
:107F3E00216F000E236F000E226F000E1D6F000EBC
:107F4E001C6F000E1B6F120070EC3FF069EC3FF0DF
:107F5E006BEC3FF0030E026E8A0E016E560EE82E8B
:107F6E00FED7012EFCD7022EFAD767EC3FF0030E98
:107F7E00026E8A0E016E560EE82EFED7012EFCD72B
:107F8E00022EFAD7AFEF3FF0FEEF3FF0000EBA6EC3
:107F9E00000EBB6E000EBC6EC268C368C468FC0ED9
:107FAE003A01606F50694069000E816F000E516F8B
:107FBE00000E416F000E616F000E5A6F000E5B6F68
:107FCE00000E6A6F000E6B6F000E426F000E526F46
:107FDE00000E626F43695369636944695469646949
:107FEE00080E846F100ED16F110ED26F12006DEF4E
:027FFE003FF052
:020000040020DA
:10000000FF0FFF0FFF0FFF0FFF0FFF0FFF0FFF0F80
:020000040030CA
:0A000000ECFFF7FF9FFFFFFFFFFF7B
:00000001FF
