:020000040000FA
:0400000057EF00F0C6
:100008002A012A012A012A012A012A012A012A0190
:100018002A012A012A012A012A012A012A012A0180
:100028002A012A012A012A012A012A012A012A0170
:100038002A012A012A012A012A012A012A012A0160
:1000480096002A012A012A012B002A012A012A01E5
:100058002A012A012A012A012A012A012A012A0140
:100068002A012A012A012A012A012A012A012A0130
:100078002A012A012B002A012A012A012B002B0020
:100088002B002B002B002B002B002B002A012A0110
:100098002A012A012A012A012B002B002B002B0000
:1000A8002A012A01FF0036EF02F041EC02F08BEC46
:1000B80001F06CEC01F04DEC01F0D28E020E096EED
:1000C800020E0A6E000E0C6E000E0B6E8FEF00F023
:1000D80060002CF003F0600030F004F005EC02F052
:1000E80060002CF003F0600030F004F0F2EC01F056
:1000F80060002CF003F0600030F004F0DFEC01F059
:100108000D0E076EFC0EE82EFED7072EFCD7095001
:100118000B26000E0C22CC0E076E000E086E09503E
:10012800075E000E085A07500B5C08500C58D8A000
:10013800A0EF00F0A2EF00F06CEF00F0000E0E6EE2
:10014800CC0E0D6ECBEF00F0600034F003F06000D1
:1001580038F004F005EC02F0600034F003F06000C1
:1001680038F004F0F2EC01F0600034F003F06000C5
:1001780038F004F0DFEC01F00D0E076EFC0EE82EEF
:10018800FED7072EFCD70A500D5E000E0E5A0A50F5
:10019800076E086A0D50075C0E500858D8A0D7EFB4
:1001A80000F0D9EF00F0A8EF00F066EF00F057EF8D
:1001B80000F0000EBA6E000EBB6E000EBC6EC26878
:1001C800C368C4683A01606950694069000E816F6C
:1001D800000E516F000E416F000E616F000E5A6FD6
:1001E800000E5B6F000E6A6F000E6B6F000E426FA1
:1001F800000E526F000E626F436953696369446968
:1002080054696469080E846F1200000EB36E000E04
:10021800B46E040EB56EE10EB16EBA0EB06EB0508B
:100228006F00C4FE05F0066A600014F006F0056A67
:100238000510116E0650126E3901A4919481A60E14
:10024800036E040E046E4CEC02F0310EB26E120016
:100258003901A491600044F001F0600048F002F018
:10026800C9EC01F00F501010D8B43DEF01F03FEF8A
:1002780001F04CEF01F002D84CEF01F00500FA6EE6
:100288000F50FD6E1050FE6EF850FF6EFA501200BF
:100298001100000E666E320E936E000E046E660E2E
:1002A800036EDFEC01F03901A991010E966E000E84
:1002B800946E948E800E666EA9A165EF01F067EFCB
:1002C80001F060EF01F0C2940F0E3A01026F1200C4
:1002D800000E6A6E320E9F6E000E046E660E036E7E
:1002E800F2EC01F03901A791010EA26E000EA06E8A
:1002F800A08E800E6A6EA7A184EF01F086EF01F050
:100308007FEF01F0C2920E0E3A01016F1200000E4B
:100318006E6E320EAB6E000E046E660E036E05EC4A
:1003280002F03901A495010EAE6E000EAC6EAC8ED3
:10033800800E6E6EA4A5A3EF01F0A5EF01F09EEF6D
:1003480001F0C2900D0E3A01006F1200D28A000E21
:10035800D2BE010E036ED29E550ED46EAA0ED46E76
:10036800D490000E38019F6F000E9E6F080E9D6F8F
:10037800550ED46EAA0ED46ED48003B002D0D29E8D
:1003880001D0D28E390184811200B2A4CEEF01F0DF
:10039800D0EF01F0D9EF01F0B2900250B16E6000D9
:1003A80007F0B0FFB280DEEF01F00250B16E6000DE
:1003B80007F0B0FF12000340E842C00B646E600013
:1003C8000CF005F0600010F006F0D8900632053207
:1003D800D890063205320550656E12000340E84297
:1003E800C00B686E60000CF005F0600010F006F0BD
:1003F800D89006320532D890063205320550696E1B
:1004080012000340E842C00B6C6E60000CF005F06F
:10041800600010F006F0D89006320532D890063207
:10042800053205506D6E1200000E3901C06F000EC6
:10043800C16F000EC26F000EC36F000EC46F000EB6
:10044800C56F000EC66F000EC76F1200620E39012D
:10045800D96F000EDB6F000EDD6F050EDF6F000E2B
:10046800DE6F1200080ED56E000ED66E000ED76E27
:10047800000EF86E000159EF00F0AAEC01F018EC3C
:1004880002F0DDEC00F02AEC02F009EC01F01200B9
:1004980060000CF00FF0600010F010F01200120075
:0204A800110041
:020000040020DA
:10000000FF0FFF0FFF0FFF0FFF0FFF0FFF0FFF0F80
:020000040030CA
:0A000000ECFFFFFF9FFFFFFFFFFF73
:00000001FF
