:020000040000FA
:04000000FEEF3FF0E0
:107E280000019FEF3FF02AEC3FF06EEC3FF01EECB4
:107E38003FF01200620E3901D96F000EDB6F000EA1
:107E4800DD6F050EDF6F000EDE6F1200000E3901C8
:107E5800C06F000EC16F000EC26F000EC36F000E20
:107E6800C46F000EC56F000EC66F000EC76F1200FC
:107E78000140E842C00B6C6E600004F003F0600043
:107E880008F004F0D89004320332D8900432033258
:107E980003506D6E1200000E6E6E320EAB6E000E49
:107EA800026E660E016E3CEC3FF03901A495010E9E
:107EB800AE6E000EAC6EAC8E800E6E6EA4A567EF33
:107EC8003FF069EF3FF062EF3FF0C2900D0E3A01CC
:107ED800006F1200000EBA6E000EBB6E000EBC6E74
:107EE800C268C368C468FC0E3A01606F5069406993
:107EF800000E816F000E516F000E416F000E616F12
:107F0800000E5A6F000E5B6F000E6A6F000E6B6FEB
:107F1800000E426F000E526F000E626F4369536984
:107F28006369446954696469080E846F100ED16FDF
:107F3800110ED26F120017EC3FF04FEC3FF01E0EFF
:107F48000B6E1E0E0C6E000E086E000E076EC0EF54
:107F58003FF060001CF001F0600020F002F03CEC03
:107F68003FF0820E056EDE0EE82EFED7052EFCD7FA
:107F78000B500726000E0822CC0E056E000E066E6A
:107F88000B50055E000E065A0550075C065008584F
:107F9800D8A0D1EF3FF0D3EF3FF0ADEF3FF0000EA8
:107FA8000A6ECC0E096EECEF3FF0600024F001F091
:107FB800600028F002F03CEC3FF0820E056EDE0E09
:107FC800E82EFED7052EFCD70C50095E000E0A5A83
:107FD8000C50056E066A0950055C0A500658D8A070
:107FE800F8EF3FF0FAEF3FF0D9EF3FF0A7EF3FF09F
:087FF800FEEF3FF014EF3FF033
:020000040020DA
:10000000FF0FFF0FFF0FFF0FFF0FFF0FFF0FFF0F80
:020000040030CA
:0A000000ECFFF7FF9FFFFFFFFFFF7B
:00000001FF
